:100000000C9446000C9465000C9465000C946500FB
:100010000C9465000C9465000C9465000C946500CC
:100020000C9465000C9465000C9465000C946500BC
:100030000C9465000C948B010C9465000C94650085
:100040000C9465000C9465000C9465000C9465009C
:100050000C9465000C9465000C9465000C9465008C
:100060000C9465000C9465000C9465000C9465007C
:100070000C9465000C9465000C9465000C9465006C
:100080000C9465000C9465000C94650011241FBE4F
:10009000CFEFD0E4DEBFCDBF11E0A0E0B1E0E2E7FA
:1000A000FCE000E00BBF02C007900D92A431B10745
:1000B000D9F721E0A4E1B1E001C01D92A536B20755
:1000C000E1F70E941D040C9437060C940000CF93B6
:1000D000DF9300D01F92CDB7DEB789837B836A831D
:1000E00089818A3031F48A819B81BC018DE00E9434
:1000F000670080EC90E0FC018081882F90E08072A6
:100100009927892BB1F386EC90E02981FC012083AB
:1001100080E090E00F900F900F90DF91CF910895C5
:10012000CF93DF93CDB7DEB781E890E02BE0FC0101
:10013000208388E890E02DE730E0FC0131832083C4
:100140008FE690E022E0FC01208384E890E0FC014F
:100150001182108280910E0190910F01A0911001E7
:10016000B09111018093150190931601A09317018E
:10017000B09318018FE590E02FE530E0F901208180
:100180002068FC0120830000DF91CF910895CF9378
:10019000DF93CDB7DEB781E890E0FC01108200006C
:1001A000DF91CF9108950F931F93CF93DF931F9209
:1001B000CDB7DEB71982A4C08981282F30E0C901EC
:1001C000880F991F820F931F880F991F880F991FFF
:1001D0008B5D9E4FFC012081318142815381898159
:1001E000682F70E0CB01880F991F860F971F880F2B
:1001F000991F880F991F8F5D9E4FFC01808191810F
:10020000A281B381281739074A075B0708F449C060
:100210008981082F10E08981282F30E0C901880FDB
:10022000991F820F931F880F991F880F991F875D51
:100230009E4FFC01408151818981282F30E0C90106
:10024000880F991F820F931F880F991F880F991F7E
:10025000815E9E4FFC0180819181FA0109959C018C
:10026000C801880F991F800F911F880F991F880F51
:10027000991F815E9E4FFC01318320838981282F45
:1002800030E0C901880F991F820F931F880F991FB3
:10029000880F991F8B5D9E4FFC0110821182128284
:1002A00013828981682F70E08981282F30E0C9018D
:1002B000880F991F820F931F880F991F880F991F0E
:1002C0008B5D9E4FFC0180819181A281B3819C0155
:1002D000AD012F5F3F4F4F4F5F4FCB01880F991FED
:1002E000860F971F880F991F880F991F8B5D9E4F50
:1002F000FC01208331834283538389818F5F89830B
:100300008981853008F458CF00000F90DF91CF919C
:100310001F910F9108951F920F9200905F000F920E
:10032000112400905B000F922F933F934F935F93A4
:100330006F937F938F939F93AF93BF93EF93FF93AD
:10034000CF93DF93CDB7DEB7809115019091160161
:10035000A0911701B09118010197A109B1098093EB
:10036000150190931601A0931701B0931801809185
:10037000150190911601A0911701B0911801892BD8
:100380008A2B8B2B91F40E94D30080910E019091C7
:100390000F01A0911001B09111018093150190936C
:1003A0001601A0931701B09318010000DF91CF91BF
:1003B000FF91EF91BF91AF919F918F917F916F913D
:1003C0005F914F913F912F910F9000925B000F90A2
:1003D00000925F000F901F901895CF93DF9300D08D
:1003E00000D0CDB7DEB769837A838B839C83898104
:1003F0009A81AB81BC8180930E0190930F01A093F1
:100400001001B093110180910E0190910F01A09104
:100410001001B09111018093150190931601A093E2
:100420001701B093180100000F900F900F900F90DC
:10043000DF91CF910895CF93DF9300D0CDB7DEB792
:100440009A83898380E290E0FC018081809580938B
:10045000190189819A818130910551F0823091058D
:1004600061F0892B79F481E090E09A8389830DC053
:1004700082E090E09A83898308C081E090E09A83CB
:10048000898303C01A821982000089819A81813090
:10049000910549F08230910549F0892B09F00AC095
:1004A00010921B0107C010921B0104C088E08093CA
:1004B0001B01000089819A810F900F90DF91CF91ED
:1004C0000895CF93DF9300D0CDB7DEB79A838983A9
:1004D00089819A818130910589F0823091051CF4DF
:1004E000892B39F01AC08230910569F0039781F0A9
:1004F00014C081E090E09A83898312C082E090E08A
:100500009A8389830DC083E090E09A83898308C031
:1005100081E090E09A83898303C01A8219820000E7
:1005200089819A818130910579F0823091051CF49E
:10053000892B39F015C08230910551F0039761F095
:100540000FC010921A010CC081E080931A0108C0FC
:1005500082E080931A0104C084E080931A010000B5
:1005600089819A810F900F90DF91CF910895CF9359
:10057000DF9300D0CDB7DEB79A83898389819A81D2
:10058000009719F0019731F00AC081E090E09A835A
:10059000898308C081E090E09A83898303C01A822E
:1005A0001982000089819A81009719F0019751F012
:1005B0001EC010921E0185E290E020911E01FC01F8
:1005C000208315C080911A01982F977080911B018C
:1005D0008870982B80911D018071892B80931E015A
:1005E00085E290E020911E01FC01208300008981BA
:1005F0009A810F900F90DF91CF910895CF93DF9361
:1006000000D0CDB7DEB79A83898380E290E0FC0109
:10061000808180958093190189819A81813091052B
:1006200091F08230910599F1892B09F047C08091B2
:100630001901813029F481E090E09A83898341C0D7
:100640001A8219823EC080911901882329F41A82E6
:10065000198210921C0135C081E090E09A83898351
:1006600090911C0180911201981738F082E090E07F
:100670009A83898310921C0124C081E090E09A83C0
:10068000898380911C018F5F80931C011AC0909117
:100690001C0180911201981738F081E090E09A8354
:1006A000898310921C010DC082E090E09A838983B7
:1006B00080911C018F5F80931C0103C01A821982F4
:1006C000000089819A818130910549F0823091053D
:1006D00051F0892B09F00AC010921D0107C080E17A
:1006E00080931D0103C010921D01000089819A8131
:1006F0000F900F90DF91CF910895CF93DF9300D0AB
:10070000CDB7DEB79A83898380E290E0FC018081D7
:1007100080958093190189819A818130910579F1C1
:100720008230910509F446C0892B09F05EC08091A2
:100730001901882F90E086709927029729F481E0AB
:1007400090E09A83898354C080911901882F90E0AA
:1007500086709927049729F482E090E09A83898330
:1007600047C080911901882F90E0867099270697DD
:1007700019F41A8219823CC01A82198239C08091F8
:100780001901882F90E086709927029729F481E05B
:1007900090E09A8389832CC080911901882F90E082
:1007A00086709927069719F41A82198221C01A8235
:1007B00019821EC080911901882F90E086709927B8
:1007C000049729F482E090E09A83898311C0809194
:1007D0001901882F90E086709927069719F41A82DC
:1007E000198206C01A82198203C01A821982000077
:1007F00089819A818130910531F08230910569F0CB
:10080000892B89F013C080911201823070F08091A1
:10081000120181508093120108C0809112018F5FF4
:100820008093120103C0000001C0000089819A81F9
:100830000F900F90DF91CF910895CF93DF931F9288
:10084000CDB7DEB781E290E0FC01108282E290E059
:100850002FEFFC01208384E290E02FEFFC01208346
:1008600085E290E0FC01108282E0809312011982FF
:100870008981282F30E0C901880F991F820F931FAB
:10088000880F991F880F991F815E9E4FFC0111826E
:1008900010828981282F30E0C901880F991F820FAB
:1008A000931F880F991F880F991F9C012F5D3E4F42
:1008B00088EE93E0A0E0B0E0F90180839183A28309
:1008C000B3838981682F70E08981282F30E0C901C6
:1008D000880F991F820F931F880F991F880F991FE8
:1008E0008F5D9E4FFC012081318142815381CB017C
:1008F000880F991F860F971F880F991F880F991FC0
:100900008B5D9E4FFC012083318342835383898119
:10091000282F30E0C901880F991F820F931F880F7D
:10092000991F880F991F875D9E4F2BE132E0FC01D4
:100930003183208389818F5F89838981282F30E0EB
:10094000C901880F991F820F931F880F991F880F65
:10095000991F815E9E4FFC01118210828981282F90
:1009600030E0C901880F991F820F931F880F991FCC
:10097000880F991F9C012F5D3E4F8CE291E0A0E013
:10098000B0E0F90180839183A283B3838981682FCA
:1009900070E08981282F30E0C901880F991F820FEC
:1009A000931F880F991F880F991F8F5D9E4FFC0121
:1009B0002081318142815381CB01880F991F860F9D
:1009C000971F880F991F880F991F8B5D9E4FFC0101
:1009D00020833183428353838981282F30E0C901EA
:1009E000880F991F820F931F880F991F880F991FD7
:1009F000875D9E4F21E632E0FC01318320838981AF
:100A00008F5F89838981282F30E0C901880F991F62
:100A1000820F931F880F991F880F991F815E9E4F29
:100A2000FC01118210828981282F30E0C901880FD2
:100A3000991F820F931F880F991F880F991F9C0180
:100A40002F5D3E4F81E090E0A0E0B0E0F9018083AF
:100A50009183A283B3838981682F70E08981282FD5
:100A600030E0C901880F991F820F931F880F991FCB
:100A7000880F991F8F5D9E4FFC012081318142813B
:100A80005381CB01880F991F860F971F880F991FDD
:100A9000880F991F8B5D9E4FFC0120833183428319
:100AA00053838981282F30E0C901880F991F820F55
:100AB000931F880F991F880F991F875D9E4F27EB03
:100AC00032E0FC013183208389818F5F89838981B2
:100AD000282F30E0C901880F991F820F931F880FBC
:100AE000991F880F991F815E9E4FFC011182108211
:100AF0008981282F30E0C901880F991F820F931F29
:100B0000880F991F880F991F9C012F5D3E4F81E030
:100B100090E0A0E0B0E0F90180839183A283B383E9
:100B20008981682F70E08981282F30E0C901880F02
:100B3000991F820F931F880F991F880F991F8F5D30
:100B40009E4FFC012081318142815381CB01880F6E
:100B5000991F860F971F880F991F880F991F8B5D0C
:100B60009E4FFC0120833183428353838981282F48
:100B700030E0C901880F991F820F931F880F991FBA
:100B8000880F991F875D9E4F2EEF32E0FC01318365
:100B9000208389818F5F89838981282F30E0C90173
:100BA000880F991F820F931F880F991F880F991F15
:100BB000815E9E4FFC01118210828981282F30E0D6
:100BC000C901880F991F820F931F880F991F880FE3
:100BD000991F9C012F5D3E4F83E290E0A0E0B0E0C2
:100BE000F90180839183A283B3838981682F70E0A8
:100BF0008981282F30E0C901880F991F820F931F28
:100C0000880F991F880F991F8F5D9E4FFC012081CF
:100C1000318142815381CB01880F991F860F971F25
:100C2000880F991F880F991F8B5D9E4FFC012083B1
:100C30003183428353838981282F30E0C901880F93
:100C4000991F820F931F880F991F880F991F875D27
:100C50009E4F2DE733E0FC013183208361E070E09B
:100C600080E090E00E94ED010E949000FFCFF89498
:020C7000FFCFB4
:100C72000000000200000000670000000000010008
:040C8200000002006C
:00000001FF
