:100000000C9446000C9465000C9465000C946500FB
:100010000C9465000C9465000C9465000C946500CC
:100020000C9465000C9465000C9465000C946500BC
:100030000C9465000C948B010C9465000C94650085
:100040000C9465000C9465000C9465000C9465009C
:100050000C9465000C9465000C9465000C9465008C
:100060000C9465000C9465000C9465000C9465007C
:100070000C9465000C9465000C9465000C9465006C
:100080000C9465000C9465000C94650011241FBE4F
:10009000CFEFD0E4DEBFCDBF11E0A0E0B1E0EAE5F4
:1000A000FAE000E00BBF02C007900D92A231B10749
:1000B000D9F721E0A2E1B1E001C01D92A535B20758
:1000C000E1F70E9479030C942B050C940000CF9368
:1000D000DF9300D01F92CDB7DEB789837B836A831D
:1000E00089818A3031F48A819B81BC018DE00E9434
:1000F000670080EC90E0FC018081882F90E08072A6
:100100009927892BB1F386EC90E02981FC012083AB
:1001100080E090E00F900F900F90DF91CF910895C5
:10012000CF93DF93CDB7DEB781E890E02BE0FC0101
:10013000208388E890E02DE730E0FC0131832083C4
:100140008FE690E022E0FC01208384E890E0FC014F
:100150001182108280910E0190910F01A0911001E7
:10016000B09111018093130190931401A093150194
:10017000B09316018FE590E02FE530E0F901208182
:100180002068FC0120830000DF91CF910895CF9378
:10019000DF93CDB7DEB781E890E0FC01108200006C
:1001A000DF91CF9108950F931F93CF93DF931F9209
:1001B000CDB7DEB71982A4C08981282F30E0C901EC
:1001C000880F991F820F931F880F991F880F991FFF
:1001D0008D5D9E4FFC012081318142815381898157
:1001E000682F70E0CB01880F991F860F971F880F2B
:1001F000991F880F991F815E9E4FFC01808191811C
:10020000A281B381281739074A075B0708F449C060
:100210008981082F10E08981282F30E0C901880FDB
:10022000991F820F931F880F991F880F991F895D4F
:100230009E4FFC01408151818981282F30E0C90106
:10024000880F991F820F931F880F991F880F991F7E
:10025000835E9E4FFC0180819181FA0109959C018A
:10026000C801880F991F800F911F880F991F880F51
:10027000991F835E9E4FFC01318320838981282F43
:1002800030E0C901880F991F820F931F880F991FB3
:10029000880F991F8D5D9E4FFC0110821182128282
:1002A00013828981682F70E08981282F30E0C9018D
:1002B000880F991F820F931F880F991F880F991F0E
:1002C0008D5D9E4FFC0180819181A281B3819C0153
:1002D000AD012F5F3F4F4F4F5F4FCB01880F991FED
:1002E000860F971F880F991F880F991F8D5D9E4F4E
:1002F000FC01208331834283538389818F5F89830B
:100300008981843008F458CF00000F90DF91CF919D
:100310001F910F9108951F920F9200905F000F920E
:10032000112400905B000F922F933F934F935F93A4
:100330006F937F938F939F93AF93BF93EF93FF93AD
:10034000CF93DF93CDB7DEB7809113019091140165
:10035000A0911501B09116010197A109B1098093EF
:10036000130190931401A0931501B093160180918D
:10037000130190911401A0911501B0911601892BE0
:100380008A2B8B2B91F40E94D30080910E019091C7
:100390000F01A0911001B09111018093130190936E
:1003A0001401A0931501B09316010000DF91CF91C5
:1003B000FF91EF91BF91AF919F918F917F916F913D
:1003C0005F914F913F912F910F9000925B000F90A2
:1003D00000925F000F901F901895CF93DF9300D08D
:1003E00000D0CDB7DEB769837A838B839C83898104
:1003F0009A81AB81BC8180930E0190930F01A093F1
:100400001001B093110180910E0190910F01A09104
:100410001001B09111018093130190931401A093E6
:100420001501B093160100000F900F900F900F90E0
:10043000DF91CF910895CF93DF9300D0CDB7DEB792
:100440009A83898380E290E0FC018081809580938B
:10045000170189819A818130910551F0823091058F
:1004600061F0892B79F481E090E09A8389830DC053
:1004700082E090E09A83898308C081E090E09A83CB
:10048000898303C01A821982000089819A81813090
:10049000910549F08230910549F0892B09F00AC095
:1004A0001092190107C01092190104C088E08093CE
:1004B0001901000089819A810F900F90DF91CF91EF
:1004C0000895CF93DF9300D0CDB7DEB79A838983A9
:1004D00089819A818130910589F0823091051CF4DF
:1004E000892B39F01AC08230910569F0039781F0A9
:1004F00014C081E090E09A83898312C082E090E08A
:100500009A8389830DC083E090E09A83898308C031
:1005100081E090E09A83898303C01A8219820000E7
:1005200089819A818130910579F0823091051CF49E
:10053000892B39F015C08230910551F0039761F095
:100540000FC0109218010CC081E08093180108C000
:1005500082E08093180104C084E0809318010000B9
:1005600089819A810F900F90DF91CF910895CF9359
:10057000DF9300D0CDB7DEB79A83898389819A81D2
:10058000009719F0019731F00AC081E090E09A835A
:10059000898308C081E090E09A83898303C01A822E
:1005A0001982000089819A81009719F0019751F012
:1005B0001EC010921C0185E290E020911C01FC01FC
:1005C000208315C080911801982F97708091190190
:1005D0008870982B80911B018071892B80931C015E
:1005E00085E290E020911C01FC01208300008981BC
:1005F0009A810F900F90DF91CF910895CF93DF9361
:1006000000D0CDB7DEB79A83898380E290E0FC0109
:10061000808180958093170189819A81813091052D
:1006200091F08230910589F1892B09F043C08091C6
:100630001701813029F481E090E09A8389833DC0DD
:100640001A8219823AC080911701882329F41A82EC
:10065000198210921A0131C081E090E09A83898357
:1006600080911A01823038F082E090E09A83898389
:1006700010921A0122C081E090E09A8389838091D0
:100680001A018F5F80931A0118C080911A0182307D
:1006900038F081E090E09A83898310921A010DC0AE
:1006A00082E090E09A83898380911A018F5F809322
:1006B0001A0103C01A821982000089819A8181304F
:1006C000910549F08230910551F0892B09F00AC05B
:1006D00010921B0107C080E180931B0103C01092A0
:1006E0001B01000089819A810F900F90DF91CF91BB
:1006F0000895CF93DF931F92CDB7DEB781E290E0EC
:10070000FC01108282E290E02FEFFC01208384E262
:1007100090E02FEFFC01208385E290E0FC01108245
:1007200019828981282F30E0C901880F991F820F13
:10073000931F880F991F880F991F835E9E4FFC019E
:10074000118210828981282F30E0C901880F991FFA
:10075000820F931F880F991F880F991F9C01215E9C
:100760003E4F88EE93E0A0E0B0E0F90180839183F2
:10077000A283B3838981682F70E08981282F30E0BC
:10078000C901880F991F820F931F880F991F880F27
:10079000991F815E9E4FFC012081318142815381EE
:1007A000CB01880F991F860F971F880F991F880FFD
:1007B000991F8D5D9E4FFC012083318342835383BB
:1007C0008981282F30E0C901880F991F820F931F5C
:1007D000880F991F880F991F895D9E4F2BE132E08A
:1007E000FC013183208389818F5F89838981282F50
:1007F00030E0C901880F991F820F931F880F991F3E
:10080000880F991F835E9E4FFC011182108289819F
:10081000282F30E0C901880F991F820F931F880F7E
:10082000991F880F991F9C01215E3E4F8CE291E039
:10083000A0E0B0E0F90180839183A283B383898132
:10084000682F70E08981282F30E0C901880F991F37
:10085000820F931F880F991F880F991F815E9E4FEB
:10086000FC012081318142815381CB01880F991F86
:10087000860F971F880F991F880F991F8D5D9E4FB8
:10088000FC0120833183428353838981282F30E008
:10089000C901880F991F820F931F880F991F880F16
:1008A000991F895D9E4F21E632E0FC013183208350
:1008B00089818F5F89838981282F30E0C901880F62
:1008C000991F820F931F880F991F880F991F835EAE
:1008D0009E4FFC01118210828981282F30E0C901CE
:1008E000880F991F820F931F880F991F880F991FD8
:1008F0009C01215E3E4F81E090E0A0E0B0E0F90174
:1009000080839183A283B3838981682F70E089817A
:10091000282F30E0C901880F991F820F931F880F7D
:10092000991F880F991F815E9E4FFC0120813181A4
:1009300042815381CB01880F991F860F971F880F23
:10094000991F880F991F8D5D9E4FFC012083318375
:10095000428353838981282F30E0C901880F991F72
:10096000820F931F880F991F880F991F895D9E4FD3
:1009700027EB32E0FC013183208389818F5F8983FB
:100980008981282F30E0C901880F991F820F931F9A
:10099000880F991F880F991F835E9E4FFC0111825B
:1009A00010828981282F30E0C901880F991F820F9A
:1009B000931F880F991F880F991F9C01215E3E4F3E
:1009C00081E090E0A0E0B0E0F90180839183A28310
:1009D000B3838981682F70E08981282F30E0C901B5
:1009E000880F991F820F931F880F991F880F991FD7
:1009F000815E9E4FFC012081318142815381CB0178
:100A0000880F991F860F971F880F991F880F991FAE
:100A10008D5D9E4FFC012083318342835383898106
:100A2000282F30E0C901880F991F820F931F880F6C
:100A3000991F880F991F895D9E4F2EEF32E0FC01B0
:100A40003183208361E070E080E090E00E94ED015E
:0A0A50000E949000FFCFF894FFCF42
:100A5A000000000200000000670000000000010022
:020A6A0000008A
:00000001FF
